:10000000D1C00000EBC00000E9C00000E7C0000064
:10001000E5C00000E3C00000E1C00000DFC0000058
:10002000DDC00000DBC00000D9C0000083C40000B8
:1000300025C50000D3C00000D1C00000CFC0000023
:10004000CDC00000CBC00000C9C00000C7C0000088
:10005000C5C00000C3C00000C1C00000BFC0000098
:10006000BDC00000BBC00000B9C00000B7C00000A8
:10007000B5C0000007634236B79BD8A71A39685647
:1000800018AEBAAB558C1D3CB7CC5763BD6DEDFDBA
:10009000753EF6177231BF000000803F0800000077
:1000A000BE922449123EABAAAA2ABECDCCCC4C3E6D
:1000B00000000080BEABAAAAAA3E00000000BF005C
:1000C0000000803F0000000000084178D3BB438758
:1000D000D1133D190E3CC3BD4282AD2B3E68EC826C
:1000E00076BED98FE1A93E4C80EFFFBE01C4FF7FF1
:1000F0003F00000000002048656C6C6F20576F7255
:100100006C640D0A0030034C00550046004100208D
:10011000005500530042002D0052005300320033BE
:10012000003200200041006400610070007400652E
:10013000007200000018034400650061006E00209A
:1001400000430061006D0065007200610000000462
:1001500003090409023E00020100C0320904000044
:1001600001020201000524001001042402060524F6
:10017000060001070582030800FF09040100020AC6
:1001800000000007050402100005070583021000A7
:10019000051201100102000008EB034B20000001D2
:1001A00002DC010011241FBECFEFD4E0DEBFCDBFC3
:1001B00011E0A0E0B1E0EAE8F9E102C005900D929B
:1001C000A833B107D9F712E0A8E3B1E001C01D924E
:1001D000A036B107E1F705D20C94C30C11CFFC0196
:1001E000A081B1816C9380819181019691838083FC
:1001F000268137818217930721F484819581918329
:1002000080832FB7F89482859385019693878287A0
:100210002FBF0895FC01A281B3818D91B383A28386
:1002200026813781A217B30721F4248135813383D6
:1002300022839FB7F894228533852150304033873D
:1002400022879FBF0895CF93DF93EC0103C084EC16
:1002500091E0C5DFFE01219664916623C1F7DF912D
:10026000CF910895682F84EC91E0B9CFCF93C091DE
:1002700050028C2F805DF6DF86EF90E0E4DF8C2F5C
:100280008F5F6AE00E94B70C90935002CF9108955F
:10029000F894E1E6F0E080E880831082E0E8F0E0A6
:1002A00088EA8083808182608083E1E8F0E0808159
:1002B000886180838081816080838FEF9FEF90933E
:1002C0008700809386003E9A3D9A279A82E480BFF9
:1002D00081E080937D0084E080937F0080B780611F
:1002E00080BF08950F931F93CF93DF93EB018A0193
:1002F000BC0180E090E00E94B90920E03FEF4FE7A9
:1003000057E4A3D72DEC3CEC4CE050E40E94B20A39
:10031000462F572F682F792FCB01BA0120E03FEFEE
:100320004FE757E40E94470A0E94FE0AF6D7DC0115
:10033000CB019093890080938800BE0180E090E01B
:100340000E94B90920E03FEF4FE757E47ED72DEC3C
:100350003CEC4CE050E40E94B20A462F572F682F25
:10036000792FCB01BA0120E03FEF4FE757E40E941D
:10037000470A0E94FE0AD1D7DC01CB0190938B0083
:1003800080938A00B80180E090E0F3D720E03FEF4F
:100390004FE757E45AD72DEC3CEC4CE050E40E9478
:1003A000B20A462F572F682F792FCB01BA0120E0D0
:1003B0003FEF4FE757E40E94470A0E94FE0AADD77D
:1003C000DC01CB0190938D0080938C00DF91CF9165
:1003D0001F910F91089500B604FE06C080B780619A
:1003E00080BF81E090E0089580E090E008958DE680
:1003F000809351022FB7F89480914201909143016C
:100400002FBF009729F088E391E004DF8093510229
:1004100080915102823609F44BC0833640F4873410
:10042000B9F18235C9F0823409F05FC04DC0883619
:1004300009F45AC0823721F0873609F056C01CC033
:1004400080911B0190911C0123E0883E920708F4E3
:10045000C3C0885E93400BC080911B0190911C012A
:100460002CEF8831920708F0B7C088519C4F9093C9
:100470001C0180931B01089580911D0190911E0124
:1004800023E0883E920708F4A7C0885E93400BC023
:1004900080911D0190911E012CEF8831920708F088
:1004A0009BC088519C4F90931E0180931D0108951D
:1004B00080911F019091200123E0883E920708F46B
:1004C0008BC0885E93400BC080911F0190912001EA
:1004D0002CEF8831920708F07FC088519C4F909391
:1004E000200180931F010895C1DE809152029091F6
:1004F0005302019690935302809352028B309105E0
:1005000008F46AC020911B0130911C018FEF2D3F30
:10051000380718F08EEF9FEF05C02330310530F417
:1005200082E090E0909322018093210140911D018F
:1005300050911E018FEF4C3F580718F08DEF9FEF41
:1005400005C04430510530F483E090E090932401DD
:1005500080932301E0911F01F09120018FEFEA3F8A
:10056000F80718F08BEF9FEF05C0E630F10530F487
:1005700085E090E0909326018093250180912101F0
:1005800090912201820F931F90931C0180931B0175
:100590006091230170912401640F751F70931E01F7
:1005A00060931D0140912501509126014E0F5F1F60
:1005B0005093200140931F0195DE0DDF009741F01D
:1005C0008FEF9FEF60E070E040E050E08BDEFFCF08
:1005D000109253021092520208959DD184E085BD7D
:1005E000089556DEFADFE8E3F1E02FB7F89484E4EB
:1005F00091E091838083938382839583848384ECC9
:1006000091E09783868380E890E0918780871386C6
:1006100012862FBFE4ECF1E04FB7F89420ED31E003
:1006200031832083338322833583248320E532E0A2
:100630003783268391878087138612864FBF7894ED
:1006400015DED5DE8FB7F894209142013091430139
:100650008FBF80914001909141012817390749F0DF
:1006600080E091E0C2D5BC0197FD03C088E391E032
:10067000B6DD8FB7F894C091CE01D091CF018FBF76
:10068000A89903C0C136D10590F0A89A0EC0E09198
:10069000C601F091C70180E091E0608144D52197C7
:1006A000882329F484EC91E0B5DD209781F780E080
:1006B00091E08CD54DD4C5CF0895089580E091E0A8
:1006C0000EC580E091E05FC40895923029F0933028
:1006D00041F09130E9F417C08EE390E0E3E5F1E0FA
:1006E0001BC0813041F0813018F0823089F406C09F
:1006F000EFE4F1E005C0E5E3F1E002C0E5E0F1E0A0
:10070000849190E009C082E190E0E1E9F1E004C069
:1007100080E090E0E0E0F0E0DA011196FC93EE93E7
:100720000895982F2AC09093E900981739F0709196
:10073000EC002091ED005091F00003C0242F762FA3
:1007400050E021FF19C03091EB003E7F3093EB0069
:100750003091ED003D7F3093ED003091EB00316042
:100760003093EB007093EC002093ED005093F00079
:100770002091EE0027FF08C09F5F9530A0F28F7098
:100780008093E90081E0089580E008950F931F931E
:10079000CF93DF93162FEC0100E02AC098819923B4
:1007A00029F16B81E981FA812C81892F8F70853045
:1007B00018F56295660F660F607C991F9927991F3F
:1007C000692B223010F096E001C092E028E030E082
:1007D00040E003C04F5F220F331F2E173F07D0F3B7
:1007E0004295407F492B9DDF882331F00F5F25968E
:1007F0000117A1F681E001C080E0DF91CF911F9148
:100800000F9108958091580287FF11C003C08EB3E5
:100810008823B1F08091E80082FFF9CF8091E80051
:100820008B778093E80008958EB3882349F08091F8
:10083000E80080FFF9CF8091E8008E778093E80090
:1008400008958091E4009091E50045E601C0C9015A
:100850002091EC0020FF22C02091E80020FD14C070
:100860002EB3222399F0253099F02091EB0025FD3D
:1008700011C02091E4003091E5002817390741F3B9
:10088000415029F784E0089580E0089582E00895BA
:1008900083E0089581E0089580E008952091E800C4
:1008A00022FFDECFF9CF40D042D08091D8008F77A1
:1008B0008093D8008091D80080688093D800809180
:1008C000D8008F7D8093D80084E089BD86E089BD03
:1008D00009B400FEFDCF1EBA1092540210925602C7
:1008E0001092550280E060E042E01BDF8091E10061
:1008F0008E7F8093E1008091E20081608093E2002E
:100900008091E20088608093E2008091E0008E7F19
:100910008093E0000895E3E6F0E080818E7F80839D
:1009200081E080935702BFCF1092E20008951092A9
:10093000E10008951F920F920FB60F9211242F938A
:100940003F934F935F936F937F938F939F93AF9357
:10095000BF93EF93FF938091E10082FF0AC08091E3
:10096000E20082FF06C08091E1008B7F8093E1006E
:10097000EED28091E10080FF16C08091E20080FFFE
:1009800012C08091E2008E7F8093E2008091E200AD
:1009900080618093E2008091D80080628093D800CB
:1009A00019BC1EBA8ADE8091E10084FF2CC08091C0
:1009B000E20084FF28C084E089BD86E089BD09B4D7
:1009C00000FEFDCF8091D8008F7D8093D80080916C
:1009D000E1008F7E8093E1008091E2008F7E809322
:1009E000E2008091E20081608093E20080915402F5
:1009F000882321F48091E30087FF02C084E001C0D6
:100A000081E08EBB59DE8091E10083FF26C080919A
:100A1000E20083FF22C08091E100877F8093E100A4
:100A200082E08EBB109254028091E1008E7F809311
:100A3000E1008091E2008E7F8093E2008091E200ED
:100A400080618093E20080E060E042E06ADE8091B5
:100A5000F00088608093F0007AD2FF91EF91BF910F
:100A6000AF919F918F917F916F915F914F913F9146
:100A70002F910F900FBE0F901F9018951F920F92FD
:100A80000FB60F9211242F933F934F935F936F9361
:100A90007F938F939F93AF93BF93CF93EF93FF93E6
:100AA000C091E900CF708091EC001092E900809134
:100AB000F000877F8093F0007894E2D01092E900F4
:100AC0008091F00088608093F000C093E900FF916E
:100AD000EF91CF91BF91AF919F918F917F916F9146
:100AE0005F914F913F912F910F900FBE0F901F90EC
:100AF000189520915E0230915F022617370728F47F
:100B0000B901582F492F20E03EC061157105C9F782
:100B10002091E8002E772093E800F3CF8EB388234E
:100B200009F446C0853009F43FC08091E80083FD98
:100B30003DC08091E80082FD31C08091E80080FFD7
:100B400022C02091F20030E0E52FF42F2E1B3F0B46
:100B500005C081918093F10061507040CF01820FF8
:100B6000931F6115710519F08830910590F321E00C
:100B70008830910509F020E08091E8008E7780931D
:100B8000E8005E2F4F2F6115710541F6222331F6E3
:100B900005C08EB3882361F0853061F08091E80054
:100BA00082FFF7CF80E0089583E0089581E0089503
:100BB00082E0089583E0089520915E0230915F0203
:100BC0002617370728F4B901582F492F20E03FC0D6
:100BD00061157105C9F72091E8002E772093E80090
:100BE000F3CF8EB3882309F447C0853009F440C0A1
:100BF0008091E80083FD3EC08091E80082FD32C014
:100C00008091E80080FF23C02091F20030E0E52FC2
:100C1000F42F2E1B3F0B06C084918093F100319678
:100C200061507040C9018E0F9F1F6115710519F049
:100C30008830910588F321E08830910509F020E0A3
:100C40008091E8008E778093E8005E2F4F2F61152A
:100C5000710539F6222329F605C08EB3882361F089
:100C6000853061F08091E80082FFF7CF80E0089541
:100C700083E0089581E0089582E0089583E0089577
:100C80000F931F93CF93DF93CDB7DEB7AC970FB61B
:100C9000F894DEBF0FBECDBF80E0E8E5F2E09091B2
:100CA000F10091938F5F8830D1F70BDD8091E800E0
:100CB00083FF34C18091580220915902253009F4F4
:100CC00084C0263040F42130A1F1213070F023306F
:100CD00009F024C12EC0283009F4F3C0293009F4EA
:100CE00002C1263009F01AC193C0803821F0823841
:100CF00009F014C108C080915502909156029923C1
:100D000071F082600CC080915C028F708093E9006A
:100D10009091EB0081E095FF80E01092E9009091C6
:100D2000E800977F9093E8008093F1001092F10023
:100D3000D3C0882319F0823009F0F0C090E08F71A1
:100D40009070009729F08230910509F0E7C00BC040
:100D500080915A02813009F0E1C0233009F080E02F
:100D6000809356022CC080915A02882341F520912D
:100D70005C022F7009F4D2C02093E9008091EB004F
:100D800080FF1DC080915902833021F48091EB00D7
:100D9000806213C08091EB0080618093EB0081E062
:100DA00090E002C0880F991F2A95E2F78093EA002D
:100DB0001092EA008091EB0088608093EB00109223
:100DC000E9008091E800877F8AC0882309F0A6C0E7
:100DD00010915A021F770FB7F8948091E800877F2F
:100DE0008093E8000FDD8091E80080FFFCCF8091C8
:100DF000E3008078812B8093E30080688093E30098
:100E0000112311F083E001C082E08EBB0FBF86C0CA
:100E10008058823008F082C080915A0290915B0223
:100E200023E08C3D9207A9F583E08C838AE28B83D3
:100E30005FB7F894DE01139680E090E04EE061E247
:100E4000E42FF0E060935700E49180FF03C0E29547
:100E5000EF704F5FEF702E2F30E0EA3018F0295C12
:100E60003F4F02C0205D3F4F13963C932E93129745
:100E7000019612968431910519F75FBF8091E800C1
:100E8000877F8093E800CE0103966AE270E031DE4E
:100E900012C060915C02AE014F5F5F4F16DCBC0177
:100EA000009709F43BC08091E800877F8093E800B9
:100EB00089819A8181DE8091E8008B778093E800B8
:100EC0002DC0803859F58091E800877F8093E80035
:100ED000809154028093F1008091E8008E77809396
:100EE000E80090DC1BC08823C9F490915A0292302C
:100EF000A8F48091E800877F8093E80090935402E3
:100F000081DC80915402882321F48091E30087FFE3
:100F100002C084E001C081E08EBBD0DB8091E8009C
:100F200083FF0AC08091EB0080628093EB00809188
:100F3000E800877F8093E800AC960FB6F894DEBF98
:100F40000FBECDBFDF91CF911F910F9108950895EE
:100F5000CF938EB38823A9F08091E9008F70909190
:100F6000EC0090FF02C0C0E801C0C0E0C82B1092A6
:100F7000E9008091E80083FF01C082DECF70C0935A
:100F8000E900CF910895CF93DF93EC018091E800C1
:100F900083FFA2C0888190E020915C0230915D02C5
:100FA0002817390709F098C080915902813269F0F9
:100FB000823220F4803209F08FC03CC0823209F4C2
:100FC0006AC0833209F088C079C080915802813AA2
:100FD00009F082C08091E800877F8093E8008091CB
:100FE000E80080FFFCCF8C899D89AE89BF89809302
:100FF000F100492F5A2F6B2F77274093F100AD0155
:10100000662777274093F1008B2F9927AA27BB27C4
:101010008093F100888D8093F100898D8093F10099
:101020008A8D8093F1008091E8008E778093E800AC
:10103000E9DB52C080915802813209F04DC08091A5
:10104000E800877F8093E80004C08EB3882309F40A
:1010500043C08091E80082FFF8CF3091F1002091E9
:10106000F1009091F1008091F1003C8B2D8B9E8BD3
:101070008F8B8091F100888F8091F100898F809112
:10108000F1008A8F8091E8008B778093E800BADBCB
:10109000CE011ADB21C0809158028132E9F480919F
:1010A000E800877F8093E800ADDB80915A02909141
:1010B0005B02998B888BCE01C7D00EC080915802FD
:1010C000813251F48091E800877F8093E8009ADBB9
:1010D000CE0160915A02B8D0DF91CF910895CF939D
:1010E000DF93EC014096FC018BE0DF011D928A95B5
:1010F000E9F782E08C83898783E08E87CE010196B1
:1011000061E044DB882359F0CE01069661E03EDBC6
:10111000882329F0CE010B9661E038DB01C080E026
:10112000DF91CF910895CF93FC01C62F8EB3843009
:10113000E9F4448955896689778941155105610526
:101140007105A1F081818F708093E9008091E800A2
:1011500085FD08C08091E8008E778093E80071DB00
:10116000882329F4C093F10080E001C082E0CF9190
:101170000895FC018EB3843019F544895589668938
:1011800077894115510561057105D1F081818F7015
:101190008093E9008091F2008823A1F09091E8000B
:1011A0008091E8008E778093E80095FD0DC049DBC3
:1011B000882359F49091E8009E779093E800089571
:1011C00082E0089580E0089580E008952EB32430F1
:1011D00059F4FC014489558966897789411551057F
:1011E0006105710509F0C5CF0895FC018EB3843007
:1011F00029F5448955896689778941155105610525
:101200007105E1F086818F708093E9008091E8009C
:1012100082FF17C08091F200882321F08091F100B5
:1012200090E002C08FEF9FEF2091F200222359F44B
:101230002091E8002B772093E80008958FEF9FEF2F
:1012400008958FEF9FEF089508950CD0E6C0DED08B
:1012500040F0D5D030F021F45F3F19F0C7C05111F4
:1012600010C1CAC0EBD098F39923C9F35523B1F349
:10127000951B550BBB27AA2762177307840738F005
:101280009F5F5F4F220F331F441FAA1FA9F333D064
:101290000E2E3AF0E0E830D091505040E695001C18
:1012A000CAF729D0FE2F27D0660F771F881FBB1FD4
:1012B000261737074807AB07B0E809F0BB0B802DAE
:1012C000BF01FF2793585F4F2AF09E3F510568F0FA
:1012D0008DC0D7C05F3FECF3983EDCF386957795E1
:1012E0006795B795F7959F5FC9F7880F911D9695FC
:1012F000879597F90895E1E0660F771F881FBB1F58
:10130000621773078407BA0720F0621B730B840B04
:10131000BA0BEE1F88F7E095089598D088F09F5794
:1013200090F0B92F9927B751A0F0D1F0660F771F31
:10133000881F991F1AF0BA95C9F712C0B13081F011
:101340009FD0B1E008959CC0672F782F8827B85FA1
:1013500039F0B93FCCF3869577956795B395D9F772
:101360003EF490958095709561957F4F8F4F9F4F7C
:101370000895E89409C097FB3EF490958095709588
:1013800061957F4F8F4F9F4F9923A9F0F92F96E9D1
:10139000BB279395F695879577956795B795F11146
:1013A000F8CFFAF4BB0F11F460FF1BC06F5F7F4FE3
:1013B0008F4F9F4F16C0882311F096E911C07723F5
:1013C00021F09EE8872F762F05C0662371F096E8FE
:1013D000862F70E060E02AF09A95660F771F881FCD
:1013E000DAF7880F9695879597F9089597F99F678B
:1013F00080E870E060E008959FEF80EC089500249D
:101400000A941616170618060906089500240A9469
:1014100012161306140605060895092E0394000CEF
:1014200011F4882352F0BB0F40F4BF2B11F460FF7E
:1014300004C06F5F7F4F8F4F9F4F089557FD9058A7
:10144000440F551F59F05F3F71F04795880F97FB88
:10145000991F61F09F3F79F0879508951216130642
:101460001406551FF2CF4695F1DF08C01616170671
:101470001806991FF1CF86957105610508940895A6
:10148000E894BB2766277727CB0197F908950AD000
:10149000C4CFB5DF28F0BADF18F0952309F0A6CF46
:1014A000ABCFEFCFCBDFA8F39923D9F35523C9F303
:1014B000950F50E0551FAA27EE27FF27BB270024D2
:1014C0000894679520F4E20FF31FB41F0A1E220F41
:1014D000331F441FAA1F6695A9F7779530F4F30FC1
:1014E000B41F0A1E121E08F46395330F441FAA1F6F
:1014F000221F769599F7879520F4B40F0A1E121EC5
:10150000631F440FAA1F221F331F8695A9F7862F3A
:10151000712D602D11249F5750408AF0E1F08823EF
:101520004AF0EE0FFF1FBB1F661F771F881F9150E9
:101530005040A9F79E3F510570F058CFA2CF5F3FB2
:10154000ECF3983EDCF3869577956795B795F7951C
:10155000E7959F5FC1F7FE2B880F911D96958795A4
:1015600097F90895FA01EE0FFF1F30962105310516
:1015700099F16115710561F48038BFE39B0749F16A
:1015800068949038810561F08038BFEF9B0741F087
:10159000992342F5FF3FE1053105210511F1E8945A
:1015A0000894E795D901AA2329F4AB2FBE2FF85F41
:1015B000D0F310C0FF5F70F4A695E0F7F73950F054
:1015C00019F0FF3A38F49F779F930CD00F9007FCE7
:1015D000905808953EF010CF60E070E080E89FE3FF
:1015E00008954FE79F775F934F933F932F93E7D0F3
:1015F0002F913F914F915F914ADF25C027DFE0F0A7
:101600009E37D8F09639B8F49E3848F4672F782F73
:101610008827985FF9CF8695779567959395953943
:10162000D0F3B62FB1706B0F711D811D20F487951B
:1016300077956795939533C04DC023CF19F40EF07D
:10164000D5CE1ECFD9CE02DFC8F39638C0F707F843
:101650000F92E8942BE33AEA48EB5FE725DF0F921D
:101660000F920F924DB75EB70F92E9D0E4E7F0E02A
:101670003FD04F915F91EF91FF91E595EE1FFF1FD6
:1016800049F0FE57E0684427EE0F441FFA95E1F752
:101690004195550B5BD00F9007FE4FC008958823EE
:1016A00071F4772321F09850872B762F07C066239B
:1016B00011F499270DC09051862B70E060E02AF05C
:1016C0009A95660F771F881FDAF7880F969587958A
:1016D00097F908959F3F31F0915020F487957795C1
:1016E0006795B795880F911D9695879597F90895F9
:1016F000DF93CF931F930F93FF92EF92DF927B01C3
:101700008C01689405C0DA2EEF01CCDEFE01E8946E
:10171000A5912591359145915591AEF3EF01D4D026
:10172000FE019701A801DA9479F7DF90EF90FF901E
:101730000F911F91CF91DF9108959B01AC0160E063
:1017400070E080E89FE381CD51CEC4CF7FDEE8F327
:101750009923D9F3940F511DBBF39150504094F04D
:1017600059F0882332F0660F771F881F9150504040
:10177000C1F79E3F510544F7880F911D96958795B7
:1017800097F908955F3FACF0983E9CF0BB27869593
:1017900077956795B79508F4B1609395C1F7BB0F3E
:1017A00058F711F460FFE8CF6F5F7F4F8F4F9F4F67
:1017B000E3CF67CE0EF08ECF1FCE689417CE46DEF5
:1017C000C8F39923D1F3C6F3DF93CF931F930F93FD
:1017D000FF92C92FDD2788232AF02197660F771FF4
:1017E000881FDAF720E030E040E85FEB9FE38839BC
:1017F00020F0803E30F021968F7755D0ECE9F0E074
:1018000003C051D0E9ECF0E073DF8B01BE01EC01C5
:10181000FB2E6F5771097595771F880B990BABDD00
:1018200028E132E741E35FE33DDEAF2D9801AE01F1
:10183000FF900F911F91CF91DF9146D0EECDFA012D
:10184000DC01AA0FBB1F9B01AC01BF5728F4222764
:101850003327442750781FC0B75188F4AB2F00249A
:10186000469537952795011CA395D2F3002069F082
:10187000220F331F441FB395DAF30DD013C061302C
:101880007105A0E88A07B94630F49B01AC016627D0
:10189000772788279078309621F020833183428300
:1018A000538308955058BB27AA270ED0B6CDA7DD85
:1018B00030F0ACDD20F031F49F3F11F41EF49CCDEC
:1018C0000EF4E095E7FB92CDE92FB8DD80F3BA176F
:1018D000620773078407950718F071F49EF5D0CD61
:1018E0000EF4E0950B2EBA2FA02D0B01B90190013B
:1018F0000C01CA01A0011124FF27591B99F0593F7F
:1019000050F4503E68F11A16F040A22F232F342FC6
:101910004427585FF3CF469537952795A795F04014
:101920005395C9F77EF41F16BA0B620B730B840B29
:10193000BAF09150A1F0FF0FBB1F661F771F881FE1
:10194000C2F70EC0BA0F621F731F841F48F4879539
:1019500077956795B795F7959E3F08F0B3CF939528
:10196000880F08F09927EE0F979587950895991B92
:1019700079E004C0991F961708F0961B881F7A9586
:0A198000C9F780950895F894FFCF91
:10198A000083100000010410000001820800000119
:10199A000000000000000000000000FFFFFF7F18A9
:1019AA0006020003000500A120000000000200A1B9
:0819BA00010000000000000024
:00000001FF
